{
  "contractName": "Base",
  "abi": [
    {
      "inputs": [
        {
          "internalType": "address",
          "name": "_erc20TokenAddress",
          "type": "address"
        }
      ],
      "payable": false,
      "stateMutability": "nonpayable",
      "type": "constructor"
    },
    {
      "anonymous": false,
      "inputs": [
        {
          "indexed": true,
          "internalType": "address",
          "name": "previousOwner",
          "type": "address"
        }
      ],
      "name": "OwnershipRenounced",
      "type": "event"
    },
    {
      "anonymous": false,
      "inputs": [
        {
          "indexed": true,
          "internalType": "address",
          "name": "previousOwner",
          "type": "address"
        },
        {
          "indexed": true,
          "internalType": "address",
          "name": "newOwner",
          "type": "address"
        }
      ],
      "name": "OwnershipTransferred",
      "type": "event"
    },
    {
      "constant": false,
      "inputs": [],
      "name": "claimOwnership",
      "outputs": [],
      "payable": false,
      "stateMutability": "nonpayable",
      "type": "function"
    },
    {
      "constant": true,
      "inputs": [],
      "name": "owner",
      "outputs": [
        {
          "internalType": "address",
          "name": "",
          "type": "address"
        }
      ],
      "payable": false,
      "stateMutability": "view",
      "type": "function"
    },
    {
      "constant": true,
      "inputs": [],
      "name": "pendingOwner",
      "outputs": [
        {
          "internalType": "address",
          "name": "",
          "type": "address"
        }
      ],
      "payable": false,
      "stateMutability": "view",
      "type": "function"
    },
    {
      "constant": false,
      "inputs": [],
      "name": "renounceOwnership",
      "outputs": [],
      "payable": false,
      "stateMutability": "nonpayable",
      "type": "function"
    },
    {
      "constant": false,
      "inputs": [
        {
          "internalType": "address",
          "name": "newOwner",
          "type": "address"
        }
      ],
      "name": "transferOwnership",
      "outputs": [],
      "payable": false,
      "stateMutability": "nonpayable",
      "type": "function"
    },
    {
      "constant": false,
      "inputs": [],
      "name": "newProduct",
      "outputs": [
        {
          "internalType": "uint256",
          "name": "",
          "type": "uint256"
        }
      ],
      "payable": false,
      "stateMutability": "nonpayable",
      "type": "function"
    },
    {
      "constant": false,
      "inputs": [
        {
          "internalType": "string",
          "name": "title",
          "type": "string"
        },
        {
          "internalType": "string",
          "name": "proName",
          "type": "string"
        },
        {
          "internalType": "string",
          "name": "ID",
          "type": "string"
        },
        {
          "internalType": "uint256",
          "name": "price",
          "type": "uint256"
        }
      ],
      "name": "uploadProduct",
      "outputs": [
        {
          "internalType": "uint256",
          "name": "",
          "type": "uint256"
        }
      ],
      "payable": false,
      "stateMutability": "nonpayable",
      "type": "function"
    },
    {
      "constant": false,
      "inputs": [
        {
          "internalType": "uint256",
          "name": "pn",
          "type": "uint256"
        }
      ],
      "name": "saveBuyerAddress",
      "outputs": [],
      "payable": false,
      "stateMutability": "nonpayable",
      "type": "function"
    },
    {
      "constant": false,
      "inputs": [
        {
          "internalType": "uint256",
          "name": "pn",
          "type": "uint256"
        }
      ],
      "name": "successTrade",
      "outputs": [],
      "payable": false,
      "stateMutability": "nonpayable",
      "type": "function"
    },
    {
      "constant": false,
      "inputs": [
        {
          "internalType": "uint256",
          "name": "pn",
          "type": "uint256"
        }
      ],
      "name": "failTrade",
      "outputs": [],
      "payable": false,
      "stateMutability": "nonpayable",
      "type": "function"
    },
    {
      "constant": false,
      "inputs": [
        {
          "internalType": "uint256",
          "name": "pn",
          "type": "uint256"
        }
      ],
      "name": "Pay",
      "outputs": [],
      "payable": false,
      "stateMutability": "nonpayable",
      "type": "function"
    },
    {
      "constant": true,
      "inputs": [
        {
          "internalType": "uint256",
          "name": "pNum",
          "type": "uint256"
        }
      ],
      "name": "getProductInfo",
      "outputs": [
        {
          "internalType": "string",
          "name": "",
          "type": "string"
        }
      ],
      "payable": false,
      "stateMutability": "view",
      "type": "function"
    },
    {
      "constant": true,
      "inputs": [
        {
          "internalType": "uint256",
          "name": "pNum",
          "type": "uint256"
        }
      ],
      "name": "getProductName",
      "outputs": [
        {
          "internalType": "string",
          "name": "",
          "type": "string"
        }
      ],
      "payable": false,
      "stateMutability": "view",
      "type": "function"
    },
    {
      "constant": true,
      "inputs": [
        {
          "internalType": "uint256",
          "name": "pNum",
          "type": "uint256"
        }
      ],
      "name": "getProductPrice",
      "outputs": [
        {
          "internalType": "uint256",
          "name": "",
          "type": "uint256"
        }
      ],
      "payable": false,
      "stateMutability": "view",
      "type": "function"
    },
    {
      "constant": true,
      "inputs": [
        {
          "internalType": "uint256",
          "name": "pNum",
          "type": "uint256"
        }
      ],
      "name": "getSellerID",
      "outputs": [
        {
          "internalType": "string",
          "name": "",
          "type": "string"
        }
      ],
      "payable": false,
      "stateMutability": "view",
      "type": "function"
    },
    {
      "constant": true,
      "inputs": [],
      "name": "returncontractAddress",
      "outputs": [
        {
          "internalType": "address",
          "name": "",
          "type": "address"
        }
      ],
      "payable": false,
      "stateMutability": "view",
      "type": "function"
    },
    {
      "constant": true,
      "inputs": [],
      "name": "getTradePrice",
      "outputs": [
        {
          "internalType": "uint256",
          "name": "",
          "type": "uint256"
        }
      ],
      "payable": false,
      "stateMutability": "view",
      "type": "function"
    },
    {
      "constant": false,
      "inputs": [],
      "name": "getBalance",
      "outputs": [
        {
          "internalType": "uint256",
          "name": "",
          "type": "uint256"
        }
      ],
      "payable": true,
      "stateMutability": "payable",
      "type": "function"
    },
    {
      "constant": true,
      "inputs": [
        {
          "internalType": "uint256",
          "name": "pNum",
          "type": "uint256"
        }
      ],
      "name": "getTradeStatus",
      "outputs": [
        {
          "internalType": "uint256",
          "name": "",
          "type": "uint256"
        }
      ],
      "payable": false,
      "stateMutability": "view",
      "type": "function"
    },
    {
      "constant": true,
      "inputs": [
        {
          "internalType": "uint256",
          "name": "pn",
          "type": "uint256"
        }
      ],
      "name": "returnBuyerAddress",
      "outputs": [
        {
          "internalType": "address",
          "name": "",
          "type": "address"
        }
      ],
      "payable": false,
      "stateMutability": "view",
      "type": "function"
    },
    {
      "constant": true,
      "inputs": [
        {
          "internalType": "uint256",
          "name": "pn",
          "type": "uint256"
        }
      ],
      "name": "returnSellerAddress",
      "outputs": [
        {
          "internalType": "address",
          "name": "",
          "type": "address"
        }
      ],
      "payable": false,
      "stateMutability": "view",
      "type": "function"
    },
    {
      "constant": false,
      "inputs": [
        {
          "internalType": "uint256",
          "name": "pn",
          "type": "uint256"
        },
        {
          "internalType": "uint256",
          "name": "n",
          "type": "uint256"
        }
      ],
      "name": "setTradeStatus",
      "outputs": [],
      "payable": false,
      "stateMutability": "nonpayable",
      "type": "function"
    },
    {
      "constant": false,
      "inputs": [
        {
          "internalType": "uint256",
          "name": "pn",
          "type": "uint256"
        },
        {
          "internalType": "string",
          "name": "str",
          "type": "string"
        }
      ],
      "name": "setBuyerID",
      "outputs": [],
      "payable": false,
      "stateMutability": "nonpayable",
      "type": "function"
    },
    {
      "constant": true,
      "inputs": [
        {
          "internalType": "uint256",
          "name": "pn",
          "type": "uint256"
        }
      ],
      "name": "getBuyerID",
      "outputs": [
        {
          "internalType": "string",
          "name": "",
          "type": "string"
        }
      ],
      "payable": false,
      "stateMutability": "view",
      "type": "function"
    },
    {
      "constant": true,
      "inputs": [],
      "name": "returnTokenAdd",
      "outputs": [
        {
          "internalType": "address",
          "name": "",
          "type": "address"
        }
      ],
      "payable": false,
      "stateMutability": "view",
      "type": "function"
    },
    {
      "constant": true,
      "inputs": [],
      "name": "currentProductNum",
      "outputs": [
        {
          "internalType": "uint256",
          "name": "",
          "type": "uint256"
        }
      ],
      "payable": false,
      "stateMutability": "view",
      "type": "function"
    }
  ],
  "bytecode": "0x6080604052600060045534801561001557600080fd5b506040516121163803806121168339818101604052602081101561003857600080fd5b8101908080519060200190929190505050336000806101000a81548173ffffffffffffffffffffffffffffffffffffffff021916908373ffffffffffffffffffffffffffffffffffffffff16021790555080600360006101000a81548173ffffffffffffffffffffffffffffffffffffffff021916908373ffffffffffffffffffffffffffffffffffffffff16021790555080600260006101000a81548173ffffffffffffffffffffffffffffffffffffffff021916908373ffffffffffffffffffffffffffffffffffffffff16021790555050611ffb8061011b6000396000f3fe6080604052600436106101815760003560e01c80638d74a16c116100d1578063e30c39781161008a578063f2fde38b11610064578063f2fde38b14610aa2578063f4bb83bd14610af3578063f67d401514610b6e578063fe7b00f414610ba957610181565b8063e30c397814610948578063e7a235a41461099f578063e7bf7dfc14610a5357610181565b80638d74a16c146107215780638da5cb5b1461075c5780639a1f129b146107b35780639e62e795146107ee578063b36e88ba146108a2578063da8cf82e146108f157610181565b806355a2ed951161013e578063729fc8a411610118578063729fc8a4146105c2578063781a2cca146105ed57806379a85e6c146106285780638d335606146106dc57610181565b806355a2ed951461036c5780636a93707414610397578063715018a6146105ab57610181565b80630aa8fbf01461018657806312065fe014610201578063223cfdb31461021f578063479c2b27146102d35780634e71e0c8146102fe578063514b733b14610315575b600080fd5b34801561019257600080fd5b506101bf600480360360208110156101a957600080fd5b8101908080359060200190929190505050610c7b565b604051808273ffffffffffffffffffffffffffffffffffffffff1673ffffffffffffffffffffffffffffffffffffffff16815260200191505060405180910390f35b610209610cbb565b6040518082815260200191505060405180910390f35b34801561022b57600080fd5b506102586004803603602081101561024257600080fd5b8101908080359060200190929190505050610d9c565b6040518080602001828103825283818151815260200191508051906020019080838360005b8381101561029857808201518184015260208101905061027d565b50505050905090810190601f1680156102c55780820380516001836020036101000a031916815260200191505b509250505060405180910390f35b3480156102df57600080fd5b506102e8610e54565b6040518082815260200191505060405180910390f35b34801561030a57600080fd5b50610313610e6b565b005b34801561032157600080fd5b5061032a611008565b604051808273ffffffffffffffffffffffffffffffffffffffff1673ffffffffffffffffffffffffffffffffffffffff16815260200191505060405180910390f35b34801561037857600080fd5b50610381611010565b6040518082815260200191505060405180910390f35b3480156103a357600080fd5b50610595600480360360808110156103ba57600080fd5b81019080803590602001906401000000008111156103d757600080fd5b8201836020820111156103e957600080fd5b8035906020019184600183028401116401000000008311171561040b57600080fd5b91908080601f016020809104026020016040519081016040528093929190818152602001838380828437600081840152601f19601f8201169050808301925050505050505091929192908035906020019064010000000081111561046e57600080fd5b82018360208201111561048057600080fd5b803590602001918460018302840111640100000000831117156104a257600080fd5b91908080601f016020809104026020016040519081016040528093929190818152602001838380828437600081840152601f19601f8201169050808301925050505050505091929192908035906020019064010000000081111561050557600080fd5b82018360208201111561051757600080fd5b8035906020019184600183028401116401000000008311171561053957600080fd5b91908080601f016020809104026020016040519081016040528093929190818152602001838380828437600081840152601f19601f82011690508083019250505050505050919291929080359060200190929190505050611030565b6040518082815260200191505060405180910390f35b3480156105b757600080fd5b506105c0611161565b005b3480156105ce57600080fd5b506105d7611261565b6040518082815260200191505060405180910390f35b3480156105f957600080fd5b506106266004803603602081101561061057600080fd5b810190808035906020019092919050505061126b565b005b34801561063457600080fd5b506106616004803603602081101561064b57600080fd5b81019080803590602001909291905050506115c1565b6040518080602001828103825283818151815260200191508051906020019080838360005b838110156106a1578082015181840152602081019050610686565b50505050905090810190601f1680156106ce5780820380516001836020036101000a031916815260200191505b509250505060405180910390f35b3480156106e857600080fd5b5061071f600480360360408110156106ff57600080fd5b810190808035906020019092919080359060200190929190505050611679565b005b34801561072d57600080fd5b5061075a6004803603602081101561074457600080fd5b8101908080359060200190929190505050611698565b005b34801561076857600080fd5b50610771611918565b604051808273ffffffffffffffffffffffffffffffffffffffff1673ffffffffffffffffffffffffffffffffffffffff16815260200191505060405180910390f35b3480156107bf57600080fd5b506107ec600480360360208110156107d657600080fd5b810190808035906020019092919050505061193d565b005b3480156107fa57600080fd5b506108276004803603602081101561081157600080fd5b8101908080359060200190929190505050611995565b6040518080602001828103825283818151815260200191508051906020019080838360005b8381101561086757808201518184015260208101905061084c565b50505050905090810190601f1680156108945780820380516001836020036101000a031916815260200191505b509250505060405180910390f35b3480156108ae57600080fd5b506108db600480360360208110156108c557600080fd5b8101908080359060200190929190505050611a4d565b6040518082815260200191505060405180910390f35b3480156108fd57600080fd5b50610906611a6d565b604051808273ffffffffffffffffffffffffffffffffffffffff1673ffffffffffffffffffffffffffffffffffffffff16815260200191505060405180910390f35b34801561095457600080fd5b5061095d611a97565b604051808273ffffffffffffffffffffffffffffffffffffffff1673ffffffffffffffffffffffffffffffffffffffff16815260200191505060405180910390f35b3480156109ab57600080fd5b506109d8600480360360208110156109c257600080fd5b8101908080359060200190929190505050611abd565b6040518080602001828103825283818151815260200191508051906020019080838360005b83811015610a185780820151818401526020810190506109fd565b50505050905090810190601f168015610a455780820380516001836020036101000a031916815260200191505b509250505060405180910390f35b348015610a5f57600080fd5b50610a8c60048036036020811015610a7657600080fd5b8101908080359060200190929190505050611b75565b6040518082815260200191505060405180910390f35b348015610aae57600080fd5b50610af160048036036020811015610ac557600080fd5b81019080803573ffffffffffffffffffffffffffffffffffffffff169060200190929190505050611b95565b005b348015610aff57600080fd5b50610b2c60048036036020811015610b1657600080fd5b8101908080359060200190929190505050611c32565b604051808273ffffffffffffffffffffffffffffffffffffffff1673ffffffffffffffffffffffffffffffffffffffff16815260200191505060405180910390f35b348015610b7a57600080fd5b50610ba760048036036020811015610b9157600080fd5b8101908080359060200190929190505050611c72565b005b348015610bb557600080fd5b50610c7960048036036040811015610bcc57600080fd5b810190808035906020019092919080359060200190640100000000811115610bf357600080fd5b820183602082011115610c0557600080fd5b80359060200191846001830284011164010000000083111715610c2757600080fd5b91908080601f016020809104026020016040519081016040528093929190818152602001838380828437600081840152601f19601f820116905080830192505050505050509192919290505050611ef2565b005b60006005600083815260200190815260200160002060080160009054906101000a900473ffffffffffffffffffffffffffffffffffffffff169050919050565b6000600260009054906101000a900473ffffffffffffffffffffffffffffffffffffffff1673ffffffffffffffffffffffffffffffffffffffff166370a08231336040518263ffffffff1660e01b8152600401808273ffffffffffffffffffffffffffffffffffffffff1673ffffffffffffffffffffffffffffffffffffffff16815260200191505060206040518083038186803b158015610d5c57600080fd5b505afa158015610d70573d6000803e3d6000fd5b505050506040513d6020811015610d8657600080fd5b8101908080519060200190929190505050905090565b6060600560008381526020019081526020016000206002018054600181600116156101000203166002900480601f016020809104026020016040519081016040528092919081815260200182805460018160011615610100020316600290048015610e485780601f10610e1d57610100808354040283529160200191610e48565b820191906000526020600020905b815481529060010190602001808311610e2b57829003601f168201915b50505050509050919050565b600060046000815480929190600101919050555090565b600160009054906101000a900473ffffffffffffffffffffffffffffffffffffffff1673ffffffffffffffffffffffffffffffffffffffff163373ffffffffffffffffffffffffffffffffffffffff1614610ec557600080fd5b600160009054906101000a900473ffffffffffffffffffffffffffffffffffffffff1673ffffffffffffffffffffffffffffffffffffffff166000809054906101000a900473ffffffffffffffffffffffffffffffffffffffff1673ffffffffffffffffffffffffffffffffffffffff167f8be0079c531659141344cd1fd0a4f28419497f9722a3daafe3b4186f6b6457e060405160405180910390a3600160009054906101000a900473ffffffffffffffffffffffffffffffffffffffff166000806101000a81548173ffffffffffffffffffffffffffffffffffffffff021916908373ffffffffffffffffffffffffffffffffffffffff1602179055506000600160006101000a81548173ffffffffffffffffffffffffffffffffffffffff021916908373ffffffffffffffffffffffffffffffffffffffff160217905550565b600030905090565b600060056000600454815260200190815260200160002060050154905090565b600061103a610e54565b50846005600060045481526020019081526020016000206000019080519060200190611067929190611f21565b50836005600060045481526020019081526020016000206001019080519060200190611094929190611f21565b508260056000600454815260200190815260200160002060020190805190602001906110c1929190611f21565b5081600560006004548152602001908152602001600020600501819055506000600560006004548152602001908152602001600020600601819055503360056000600454815260200190815260200160002060070160006101000a81548173ffffffffffffffffffffffffffffffffffffffff021916908373ffffffffffffffffffffffffffffffffffffffff1602179055506004549050949350505050565b6000809054906101000a900473ffffffffffffffffffffffffffffffffffffffff1673ffffffffffffffffffffffffffffffffffffffff163373ffffffffffffffffffffffffffffffffffffffff16146111ba57600080fd5b6000809054906101000a900473ffffffffffffffffffffffffffffffffffffffff1673ffffffffffffffffffffffffffffffffffffffff167ff8df31144d9c2f0f6b59d69b8b98abd5459d07f2742c4df920b25aae33c6482060405160405180910390a260008060006101000a81548173ffffffffffffffffffffffffffffffffffffffff021916908373ffffffffffffffffffffffffffffffffffffffff160217905550565b6000600454905090565b6005600082815260200190815260200160002060050154600260009054906101000a900473ffffffffffffffffffffffffffffffffffffffff1673ffffffffffffffffffffffffffffffffffffffff166370a08231336040518263ffffffff1660e01b8152600401808273ffffffffffffffffffffffffffffffffffffffff1673ffffffffffffffffffffffffffffffffffffffff16815260200191505060206040518083038186803b15801561132157600080fd5b505afa158015611335573d6000803e3d6000fd5b505050506040513d602081101561134b57600080fd5b8101908080519060200190929190505050101561136757600080fd5b600260009054906101000a900473ffffffffffffffffffffffffffffffffffffffff1673ffffffffffffffffffffffffffffffffffffffff1663095ea7b33060056000858152602001908152602001600020600501546040518363ffffffff1660e01b8152600401808373ffffffffffffffffffffffffffffffffffffffff1673ffffffffffffffffffffffffffffffffffffffff16815260200182815260200192505050602060405180830381600087803b15801561142657600080fd5b505af115801561143a573d6000803e3d6000fd5b505050506040513d602081101561145057600080fd5b810190808051906020019092919050505061146a57600080fd5b600260009054906101000a900473ffffffffffffffffffffffffffffffffffffffff1673ffffffffffffffffffffffffffffffffffffffff166323b872dd333060056000868152602001908152602001600020600501546040518463ffffffff1660e01b8152600401808473ffffffffffffffffffffffffffffffffffffffff1673ffffffffffffffffffffffffffffffffffffffff1681526020018373ffffffffffffffffffffffffffffffffffffffff1673ffffffffffffffffffffffffffffffffffffffff1681526020018281526020019350505050602060405180830381600087803b15801561155d57600080fd5b505af1158015611571573d6000803e3d6000fd5b505050506040513d602081101561158757600080fd5b8101908080519060200190929190505050506115a28161193d565b6001600560008381526020019081526020016000206006018190555050565b6060600560008381526020019081526020016000206000018054600181600116156101000203166002900480601f01602080910402602001604051908101604052809291908181526020018280546001816001161561010002031660029004801561166d5780601f106116425761010080835404028352916020019161166d565b820191906000526020600020905b81548152906001019060200180831161165057829003601f168201915b50505050509050919050565b8060056000848152602001908152602001600020600601819055505050565b6005600082815260200190815260200160002060050154600260009054906101000a900473ffffffffffffffffffffffffffffffffffffffff1673ffffffffffffffffffffffffffffffffffffffff166370a08231306040518263ffffffff1660e01b8152600401808273ffffffffffffffffffffffffffffffffffffffff1673ffffffffffffffffffffffffffffffffffffffff16815260200191505060206040518083038186803b15801561174e57600080fd5b505afa158015611762573d6000803e3d6000fd5b505050506040513d602081101561177857600080fd5b8101908080519060200190929190505050101561179457600080fd5b600260009054906101000a900473ffffffffffffffffffffffffffffffffffffffff1673ffffffffffffffffffffffffffffffffffffffff166323b872dd306005600085815260200190815260200160002060070160009054906101000a900473ffffffffffffffffffffffffffffffffffffffff1660056000868152602001908152602001600020600501546040518463ffffffff1660e01b8152600401808473ffffffffffffffffffffffffffffffffffffffff1673ffffffffffffffffffffffffffffffffffffffff1681526020018373ffffffffffffffffffffffffffffffffffffffff1673ffffffffffffffffffffffffffffffffffffffff1681526020018281526020019350505050602060405180830381600087803b1580156118bd57600080fd5b505af11580156118d1573d6000803e3d6000fd5b505050506040513d60208110156118e757600080fd5b8101908080519060200190929190505050506003600560008381526020019081526020016000206006018190555050565b6000809054906101000a900473ffffffffffffffffffffffffffffffffffffffff1681565b336005600083815260200190815260200160002060080160006101000a81548173ffffffffffffffffffffffffffffffffffffffff021916908373ffffffffffffffffffffffffffffffffffffffff16021790555050565b6060600560008381526020019081526020016000206001018054600181600116156101000203166002900480601f016020809104026020016040519081016040528092919081815260200182805460018160011615610100020316600290048015611a415780601f10611a1657610100808354040283529160200191611a41565b820191906000526020600020905b815481529060010190602001808311611a2457829003601f168201915b50505050509050919050565b600060056000838152602001908152602001600020600601549050919050565b6000600360009054906101000a900473ffffffffffffffffffffffffffffffffffffffff16905090565b600160009054906101000a900473ffffffffffffffffffffffffffffffffffffffff1681565b6060600560008381526020019081526020016000206003018054600181600116156101000203166002900480601f016020809104026020016040519081016040528092919081815260200182805460018160011615610100020316600290048015611b695780601f10611b3e57610100808354040283529160200191611b69565b820191906000526020600020905b815481529060010190602001808311611b4c57829003601f168201915b50505050509050919050565b600060056000838152602001908152602001600020600501549050919050565b6000809054906101000a900473ffffffffffffffffffffffffffffffffffffffff1673ffffffffffffffffffffffffffffffffffffffff163373ffffffffffffffffffffffffffffffffffffffff1614611bee57600080fd5b80600160006101000a81548173ffffffffffffffffffffffffffffffffffffffff021916908373ffffffffffffffffffffffffffffffffffffffff16021790555050565b60006005600083815260200190815260200160002060070160009054906101000a900473ffffffffffffffffffffffffffffffffffffffff169050919050565b6005600082815260200190815260200160002060050154600260009054906101000a900473ffffffffffffffffffffffffffffffffffffffff1673ffffffffffffffffffffffffffffffffffffffff166370a08231306040518263ffffffff1660e01b8152600401808273ffffffffffffffffffffffffffffffffffffffff1673ffffffffffffffffffffffffffffffffffffffff16815260200191505060206040518083038186803b158015611d2857600080fd5b505afa158015611d3c573d6000803e3d6000fd5b505050506040513d6020811015611d5257600080fd5b81019080805190602001909291905050501015611d6e57600080fd5b600260009054906101000a900473ffffffffffffffffffffffffffffffffffffffff1673ffffffffffffffffffffffffffffffffffffffff166323b872dd306005600085815260200190815260200160002060080160009054906101000a900473ffffffffffffffffffffffffffffffffffffffff1660056000868152602001908152602001600020600501546040518463ffffffff1660e01b8152600401808473ffffffffffffffffffffffffffffffffffffffff1673ffffffffffffffffffffffffffffffffffffffff1681526020018373ffffffffffffffffffffffffffffffffffffffff1673ffffffffffffffffffffffffffffffffffffffff1681526020018281526020019350505050602060405180830381600087803b158015611e9757600080fd5b505af1158015611eab573d6000803e3d6000fd5b505050506040513d6020811015611ec157600080fd5b8101908080519060200190929190505050506004600560008381526020019081526020016000206006018190555050565b80600560008481526020019081526020016000206003019080519060200190611f1c929190611f21565b505050565b828054600181600116156101000203166002900490600052602060002090601f016020900481019282601f10611f6257805160ff1916838001178555611f90565b82800160010185558215611f90579182015b82811115611f8f578251825591602001919060010190611f74565b5b509050611f9d9190611fa1565b5090565b611fc391905b80821115611fbf576000816000905550600101611fa7565b5090565b9056fea265627a7a723158206fc82ef8c1fc6fdd301f9d562b7489143d7707a36728a98e715dc70e29ef561464736f6c63430005100032",
  "source": "pragma solidity ^0.5.16;\r\n\r\nimport \"./Claimable.sol\";\r\nimport \"./ERC20.sol\";\r\nimport \"./SafeMath.sol\";\r\nimport \"./ProjectToken.sol\";\r\n\r\n\r\ncontract Base is Claimable{\r\n \r\nERC20 erc20Token;\r\n\r\nstruct Info{\r\n        string productInfo;\r\n        string productName;\r\n        string gameID;\r\n        string buyID;\r\n        uint256 tradeTime;\r\n        uint256 tradePrice;\r\n        uint256 status;\r\n        address selleraddress;    \r\n        address buyeraddress;\r\n}\r\naddress tokenAdd;\r\nuint productNum = 0 ;\r\nmapping(uint => Info) tradeInfo;\r\nconstructor(address _erc20TokenAddress) public{\r\n        tokenAdd = _erc20TokenAddress;\r\n        erc20Token = ERC20(_erc20TokenAddress);\r\n}\r\nfunction newProduct ()public returns (uint) {\r\n        productNum++;\r\n}\r\nfunction uploadProduct(string memory title ,string memory proName , string memory ID , uint price) public returns (uint) {\r\n     newProduct();\r\n     tradeInfo[productNum].productInfo=title;\r\n     tradeInfo[productNum].productName=proName;\r\n     tradeInfo[productNum].gameID=ID;\r\n     tradeInfo[productNum].tradePrice=price;\r\n     tradeInfo[productNum].status=0;\r\n     tradeInfo[productNum].selleraddress=msg.sender;\r\n     return productNum;\r\n}\r\n\r\nfunction saveBuyerAddress(uint pn) public {\r\n    tradeInfo[pn].buyeraddress=msg.sender;\r\n}\r\n\r\n\r\n\r\n\r\n//event tradeResult(address indexed seller, uint256 sellPrice);\r\n    \r\n    function successTrade(uint pn) public {\r\n        \r\n        require(erc20Token.balanceOf(address(this)) >= tradeInfo[pn].tradePrice);\r\n        erc20Token.transferFrom(address(this),tradeInfo[pn].selleraddress ,tradeInfo[pn].tradePrice);\r\n        tradeInfo[pn].status=3;\r\n       // emit tradeResult(msg.sender, tradeInfo[pn].tradePrice);\r\n    }\r\n    \r\n//event tradeResult2(address indexed buyer, uint256 sellPrice);    \r\n    function failTrade(uint pn) public {\r\n        require(erc20Token.balanceOf(address(this)) >= tradeInfo[pn].tradePrice);\r\n        erc20Token.transferFrom(address(this),tradeInfo[pn].buyeraddress,tradeInfo[pn].tradePrice);\r\n        tradeInfo[pn].status=4;\r\n        //emit tradeResult(msg.sender, tradeInfo[pn].tradePrice);    \r\n        \r\n    }\r\n    \r\n\r\n    \r\n     //event BuyProduct(address indexed buy, uint256 sellPrice);\r\n     //event Transfer(address indexed buy, address indexed to, uint256 _value);\r\n    \r\n    function Pay(uint pn) public {\r\n         require(erc20Token.balanceOf(msg.sender) >= tradeInfo[pn].tradePrice);\r\n         require(erc20Token.approve(address(this),tradeInfo[pn].tradePrice));\r\n         erc20Token.transferFrom(msg.sender,address(this), tradeInfo[pn].tradePrice);  \r\n         saveBuyerAddress(pn);\r\n         tradeInfo[pn].status=1;\r\n        //emit BuyProduct(msg.sender,tradeInfo[pn].tradePrice);\r\n        //emit Transfer(msg.sender,address(this),tradeInfo[pn].tradePrice);\r\n    }\r\n    \r\nfunction getProductInfo(uint pNum) public view returns (string memory){\r\n    return tradeInfo[pNum].productInfo;\r\n}\r\nfunction getProductName(uint pNum) public view returns (string memory){\r\n    return tradeInfo[pNum].productName;\r\n}\r\nfunction getProductPrice(uint pNum) public view returns (uint){\r\n    return tradeInfo[pNum].tradePrice;\r\n}\r\nfunction getSellerID(uint pNum) public view returns (string memory){\r\n    return tradeInfo[pNum].gameID;\r\n}\r\nfunction returncontractAddress() public view returns (address){\r\n    return address(this);\r\n}\r\nfunction getTradePrice() public view returns (uint256) {\r\n        return tradeInfo[productNum].tradePrice;\r\n}\r\nfunction getBalance() public payable returns (uint256){\r\n    return erc20Token.balanceOf(msg.sender);\r\n}\r\nfunction getTradeStatus(uint pNum) public view returns(uint){\r\n    return tradeInfo[pNum].status;\r\n}\r\nfunction returnBuyerAddress(uint pn)public view returns(address){\r\n    return tradeInfo[pn].buyeraddress;\r\n}\r\nfunction returnSellerAddress(uint pn)public view returns(address){\r\n    return tradeInfo[pn].selleraddress;\r\n}\r\nfunction setTradeStatus(uint pn,uint n)public {\r\n    tradeInfo[pn].status=n;\r\n}\r\nfunction setBuyerID(uint pn,string memory str) public {\r\n    tradeInfo[pn].buyID=str;\r\n}\r\nfunction getBuyerID(uint pn) public view returns(string memory){\r\n    return tradeInfo[pn].buyID;\r\n}\r\nfunction returnTokenAdd()public view returns(address){\r\n    return tokenAdd;\r\n}\r\n\r\nfunction currentProductNum() public view returns (uint){\r\n    return productNum;\r\n}\r\n    \r\n    \r\n}",
  "sourcePath": "C:\\Users\\josep\\OneDrive\\\\proj2\\contracts\\Base.sol",
  "compiler": {
    "name": "solc",
    "version": "0.5.16+commit.9c3226ce.Emscripten.clang"
  },
  "schemaVersion": "3.1.0",
  "updatedAt": "2020-11-01T13:36:38.914Z",
  "devdoc": {
    "methods": {
      "claimOwnership()": {
        "details": "Allows the pendingOwner address to finalize the transfer."
      },
      "renounceOwnership()": {
        "details": "Allows the current owner to relinquish control of the contract."
      },
      "transferOwnership(address)": {
        "details": "Allows the current owner to set the pendingOwner address.",
        "params": {
          "newOwner": "The address to transfer ownership to."
        }
      }
    }
  },
  "userdoc": {
    "methods": {
      "renounceOwnership()": {
        "notice": "Renouncing to ownership will leave the contract without an owner. It will not be possible to call the functions with the `onlyOwner` modifier anymore."
      }
    }
  }
}